:03000000020849AA
:10000B000201ABEFD3940640037FFF22740F2F2F17
:10001B00F8E620E5F4C2AFE64430F6D2AFAE0CEE14
:10002B00C39F50210E74632EF8E6F908E618BE063E
:10003B000274FFFDED69600909E71919F7090980D9
:10004B00F3161680DAEED39F400405810581EED3BB
:10005B009F402274632EF808E6F9EEB50C02A981D5
:10006B00180606E6FDED6960091919E70909F71984
:10007B0080F31E80D9EF2463F8E604F8EF2F049089
:10008B000B1493F608EF2F93F67F0022EFD3940611
:10009B0040037FFF22EF23240FF8E630E5F4C2AFD5
:1000AB00E6548CF6D2AFE50CB5070A74632FF8E66D
:1000BB00F581020221502E74642FF8E6BF060274FC
:1000CB00FFFD18E6F974632FF8FBE6FCE96C60089A
:1000DB00A805E7F61D1980F4A803A6051FE50CB5C6
:1000EB0007E37F002274642FF8E6FD1886010F7476
:1000FB00632FF8A601088604E50CB50702AC81ED69
:10010B006C60080D09A805E6F780F4E50CB507DE71
:10011B0089817F0022EFD3940640037FFF22EF23D8
:10012B00240FF8C2AFE630E50530E002D2E4D2E2AC
:10013B00C6D2AF7F0030E2010F0201F58FF0E4FF72
:10014B00FEE50C23240EF8C2A930F70D7F08E660FC
:10015B000B2DF660325030800730F106EDF660273C
:10016B007E020830F010C2AFE610E7250E30E20C2D
:10017B00D2AF7F048014C2AFE610E71554EC4EF6F5
:10018B00D2AFD2A90202217F0808EF4483F4C2AF99
:10019B0056C6D2AFD2A954804FFF22C2AF80FE32D7
:1001AB001201AA85D00B75D008AAE0C28CE58A246F
:1001BB00F7F58AE58C34D8F58CD28CEC2464F8E610
:1001CB00BC060274FFC39581B4140040CE79077846
:1001DB000E16E608700BC2AFE630E1034418F6D2F8
:1001EB00AF08D9EDEA8BD030000122D50DFCC0E071
:1001FB00C0D0C0F0C083C082C000C001C002C00329
:10020B00C004C005C006C007E50C23240FF87440DA
:10021B00C2AF46F6D2AFD200E50CFF23240FF80F86
:10022B000808BF07047F00780FE630E4F200E50C06
:10023B00C39F5020050C7463250CF8E6FDA68108BE
:10024B00E6AE0CBE060274FFCDF8E86D60E008E682
:10025B00C0E080F6E50CD39F4027E50C2464F8E65C
:10026B00AE0CBE060274FFFD18E6CDF8E5816D609D
:10027B0006D0E0F61880F5E50C2463C8F6150C8063
:10028B00D3750D05E50C23240FF87F04C2AFE610E0
:10029B00E61E30E00310E20C7F0030E10730E30490
:1002AB007F0854F4547CC6D2AF54804207C200225C
:1002BB00F6D2AFD007D006D005D004D003D002D0F1
:1002CB0001D000D082D083D0F0D0D0D0E0C20022B9
:1002DB007863A68174066006FF0876FFDFFB7F0755
:1002EB00E4780EF608F608DFFA780F7630900B14E8
:1002FB00740193C0E0E493C0E0750D05438901756B
:10030B008AF0758CD8D28CD2AFD2A922067F01127B
:10031B000147E522653A7004E521653970357F04A4
:10032B00120120AD3C7F021201477F05120120E52F
:10033B0026853CF0A4FD7F02120147AD3C7F0212E3
:10034B0001477F06120120E524853CF0A4FD7F02C6
:10035B00120147D3E522953AE5396480F8E521642B
:10036B0080984071C3E53A953EE53D6480F8E539E8
:10037B006480985060D290C291E538853CF0A4FD22
:10038B007F02120147053AE53A70020539B53ED4B2
:10039B00E539B53DCF7B007A00793D1209F77F0433
:1003AB00120120AD3C7F021201477F05120120E5AF
:1003BB0026853CF0A4FD7F02120147AD3C7F021263
:1003CB0001477F06120120E526853CF0A4FD7F0244
:1003DB00120147808FC3E522953AE5396480F8E531
:1003EB00216480984003020318D3E53A9528E5274A
:1003FB006480F8E5396480985003020318C290D2E8
:10040B0091E538853CF0A4FD7F02120147E53A15D2
:10041B003A70021539E53A65287004E5396527709D
:10042B0046E53A64014539603E7B007A0079271234
:10043B0009F77F04120120AD3C7F021201477F05B3
:10044B00120120E526853CF0A4FD7F02120147AD89
:10045B003C7F021201477F06120120E524853CF008
:10046B00A4FD7F02120147E53A640145396003029E
:10047B0003F47F0412012002031830B02875210009
:10048B007522017554007555007556277B007A004F
:10049B00793DAD3AAC39AF22AE2112093A7F031246
:1004AB00012020B0FD30B128752100752202755452
:1004BB00007555007556277B007A00793DAD3AAC37
:1004CB0039AF22AE2112093A7F0312012020B1FD70
:1004DB0030B22875210075220375540075550075CF
:1004EB0056277B007A00793DAD3AAC39AF22AE216D
:1004FB0012093A7F0312012020B2FD30B328752177
:10050B00007522047554007555007556277B007ACB
:10051B0000793DAD3AAC39AF22AE2112093A7F03D7
:10052B0012012020B3FD30B428752100752205750A
:10053B0054007555007556277B007A00793DAD3A0E
:10054B00AC39AF22AE2112093A7F0312012020B43D
:10055B00FD30B528752100752206755400755500C0
:10056B007556277B007A00793DAD3AAC39AF22AE98
:10057B002112093A7F0312012020B5FD30B62875F0
:10058B0021007522077554007555007556277B00A1
:10059B007A00793DAD3AAC39AF22AE2112093A7FE0
:1005AB000312012020B6FD20B7030204857521003C
:1005BB007522087554007555007556277B007A0017
:1005CB00793DAD3AAC39AF22AE2112093A7F031215
:1005DB00012020B70302048580F88E578F58E4F56D
:1005EB005DF55EF559755A07D3E55A955EE55D6481
:1005FB0080F8E5596480984035E55A24FFFFE559AA
:10060B0034FFFEEF25E0FFEE338F82F5831208D522
:10061B00FDE55A25E0FFE559338F82F583E5F08D33
:10062B00F012090DE55A155A70BE155980BAE55EE0
:10063B0025E0FFE55D338F82F583E5578558F01292
:10064B00090DE4F559F55AE55A25E0FFE559338FC5
:10065B0082F5831208D545F07003020705E55A248D
:10066B0001F55CE43559F55BC3E55C9408E55B6427
:10067B008094804003020705E55C25E0FFE55B33D2
:10068B00FE8F82F5831208D545F060638F828E83CF
:10069B001208D5FDACF0E55A25E0FFE559338F8202
:1006AB00F5831208D5FFAEF0D39DEC6480F8EE64B1
:1006BB008098403B8E5F8F60E55C25E0FFE55B3308
:1006CB008F82F5831208D5FDE55A25E0FFE55933F6
:1006DB008F82F583E5F08DF012090DE55C25E0FFC7
:1006EB00E55B338F82F583E55F8560F012090D05BD
:1006FB005CE55C7002055B020673055AE55A7002F5
:10070B000559640845596003020652228E578F58CB
:10071B00E4F55DF55EF559755A07D3E55A955EE537
:10072B005D6480F8E5596480984035E55A24FFFFF5
:10073B00E55934FFFEEF25E0FFEE338F82F5831290
:10074B0008D5FDE55A25E0FFE559338F82F583E5A2
:10075B00F08DF012090DE55A155A70BE155980BA75
:10076B00E55E25E0FFE55D338F82F583E557855820
:10077B00F012090DE4F559F55AE55A25E0FFE55954
:10078B00338F82F5831208D545F07003020837E5E5
:10079B005A2401F55CE43559F55BC3E55C9408E537
:1007AB005B648094804003020837E55C25E0FFE53D
:1007BB005B33FE8F82F5831208D545F060638F8221
:1007CB008E831208D5FDACF0E55A25E0FFE55933D1
:1007DB008F82F5831208D5FFAEF0C39DEC6480F8D1
:1007EB00EE648098503B8E5F8F60E55C25E0FFE503
:1007FB005B338F82F5831208D5FDE55A25E0FFE5C3
:10080B0059338F82F583E5F08DF012090DE55C25E8
:10081B00E0FFE55B338F82F583E55F8560F01209BE
:10082B000D055CE55C7002055B0207A5055AE55AF0
:10083B007002055964084559600302078422787FCA
:10084B00E4F6D8FD7581690208900202DBE493A3FC
:10085B00F8E493A34003F68001F208DFF48029E467
:10086B0093A3F85407240CC8C333C4540F4420C8B3
:10087B00834004F456800146F6DFE4800B0102044A
:10088B000810204080900A51E47E019360BCA3FFC6
:10089B00543F30E509541FFEE493A360010ECF547F
:1008AB00C025E060A840B8E493A3FAE493A3F8E46E
:1008BB0093A3C8C582C8CAC583CAF0A3C8C582C8DA
:1008CB00CAC583CADFE9DEE780BEBB0110E582291A
:1008DB00F582E5833AF583E0F5F0A3E0225009E9D0
:1008EB002582F886F008E622BBFE0AE92582F8E2AB
:1008FB00F5F008E222E5832AF583E993F5F0A3E905
:10090B009322F8BB0111E58229F582E5833AF58341
:10091B00E8F0E5F0A3F0225009E92582C8F608A615
:10092B00F022BBFE09E92582C8F2E5F008F2228E1F
:10093B004D8F4E8C4F8D508B518A528953D3E54E30
:10094B009550E54F6480F8E54D6480984014120A89
:10095B008AEF4E700DAB51AA52A953AF4EAE4D124A
:10096B0005E5C3E54E9550E54F6480F8E54D648091
:10097B0098501EAB54AA55A956AF4EAE4D120A8ACB
:10098B00EF4E700DAB54AA55A956AF4EAE4D120794
:10099B001722E53970FCE53A14B4080050F49009BD
:1009AB00B775F003A4C58325F0C583730209CF0285
:1009BB0009D40209D90209DE0209E30209E8020996
:1009CB00ED0209F275A00680C975A05B80C475A005
:1009DB004F80BF75A06680BA75A06D80B575A07D80
:1009EB0080B075A00780AB75A07F80A6E4F561F59C
:1009FB0062E5622401FFE43561FEC3EF9408EE6407
:100A0B008094805020EF25E0FFEE338F82F5831228
:100A1B0008D5FDE56225E0FFE561338F82F583E5BF
:100A2B00F08DF0800FE56225E0FFE561338F82F5F5
:100A3B0083E4F5F012090D0562E56270020561644D
:100A4B0008456170AC22023B006402390001023799
:100A5B0000020225000102230001103D00000000EE
:100A6B000000000000000000000000001027000044
:100A7B000000000000000000000000000000008EDD
:100A8B00578F58E4FDFCED25E0FFEC338F82F583A7
:100A9B001208D5B5580AE5F0B557057E007F01223F
:100AAB000DBD00010CED64084C70DBE4FEFF22E48D
:100ABB00F580F590F5A0F5B07F0112000E7F0212C4
:100ACB00000E7F0312000E7F0412000E7F05120032
:100ADB000E7F0612000EE4FF0200977F0112014702
:100AEB00D292E526853CF0A4FD7F02120147C2920B
:100AFB0080E97F01120147D293E524853CF0A4FDE8
:100B0B007F02120147C29380E90ABA0485099D034B
:100B1B00180B220AE60AFD7F01120147C290C2910F
:020B2B0080F553
:00000001FF
