:0213A900138CA3
:0213AB000B270E
:0213AD0012F537
:0213AF000D6FC0
:03000000021204E5
:0C120400787FE4F6D8FD75816A02124B79
:10134F00023D0001023B00020229000102230001BD
:10135F00104100000000000000000000000000002D
:10136F000000102B00000000000000000000000033
:0C137F0000000000023F000102270000F7
:10138C00E4F590F5A0FF1208007F011208007F021F
:0D139C001208007F03120800E4FF02088918
:100B270020B045752100752201D3E522953EE53DAC
:100B37006480F8E5216480987B0040137A0079414E
:100B4700755600755708AF22AE21120EC880117A6C
:100B570000792B755600755708AF22AE2112101673
:100B67007F0312092F30B0FD20B145752100752292
:100B770002D3E522953EE53D6480F8E5216480983F
:100B87007B0040137A007941755600755708AF22EC
:100B9700AE21120EC880117A00792B755600755751
:100BA70008AF22AE211210167F0312092F30B1FDB4
:100BB70020B245752100752203D3E522953EE53D18
:100BC7006480F8E5216480987B0040137A007941BE
:100BD700755600755708AF22AE21120EC880117ADC
:100BE70000792B755600755708AF22AE21121016E3
:100BF7007F0312092F30B2FD20B3457521007522FE
:100C070004D3E522953EE53D6480F8E521648098AC
:100C17007B0040137A007941755600755708AF225B
:100C2700AE21120EC880117A00792B7556007557C0
:100C370008AF22AE211210167F0312092F30B3FD21
:100C470020B445752100752205D3E522953EE53D83
:100C57006480F8E5216480987B0040137A0079412D
:100C6700755600755708AF22AE21120EC880117A4B
:100C770000792B755600755708AF22AE2112101652
:100C87007F0312092F30B4FD20B545752100752269
:100C970006D3E522953EE53D6480F8E5216480981A
:100CA7007B0040137A007941755600755708AF22CB
:100CB700AE21120EC880117A00792B755600755730
:100CC70008AF22AE211210167F0312092F30B5FD8F
:100CD70020B645752100752207D3E522953EE53DEF
:100CE7006480F8E5216480987B0040137A0079419D
:100CF700755600755708AF22AE21120EC880117ABB
:100D070000792B755600755708AF22AE21121016C1
:100D17007F0312092F30B6FD30B703020B27752169
:100D270000752208D3E522953EE53D6480F8E5216C
:100D37006480987B0040137A007941755600755797
:100D470008AF22AE21120EC880117A00792B755692
:100D570000755708AF22AE211210167F0312092F14
:080D670030B703020B2780F8EE
:1012F500E53D70FCE53E14B4080050F490130F75FD
:10130500F003A4C58325F0C5837302132702132CAC
:1013150002133102133602133B0213400213450236
:10132500134A75A00680C975A05B80C475A04F805F
:10133500BF75A06680BA75A06D80B575A07D80B0BB
:0A13450075A00780AB75A07F80A69D
:100D6F007F011209567F03120912E522653E7004B6
:100D7F00E521653D7027D292E52A75F064A4FD7FC9
:100D8F0002120956C2927D647F02120956D293E570
:100D9F002475F064A4FD7F02120956C293D3E52295
:100DAF00953EE53D6480F8E5216480984073C3E586
:100DBF003E9542E5416480F8E53D6480985062D2EB
:100DCF0090C291E53C75F064A4FDE4FBFA7F02123A
:100DDF000956053EE53E7002053DB542D1E53DB5EC
:100DEF0041CCC290C2917B007A0079417565007544
:100DFF006608E4FFFE121164D292E52A75F064A42E
:100E0F00FD7F02120956C2927D647F02120956D2EB
:100E1F0093E52475F064A4FD7F02120956C29380F6
:100E2F008DC3E522953EE53D6480F8E52164809809
:100E3F004003020D6FD3E53E952CE52B6480F8E55A
:100E4F003D6480985003020D6FE53E6401453D609F
:100E5F0061C290D291E53C75F064A4FD7F02120946
:100E6F0056E53E153E7002153DE53EB52CC7E53DF6
:100E7F00B52BC2C290C2917B007A00792B756500A9
:100E8F00756608E4FFFE121164D292E52A75F064CC
:100E9F00A4FD7F02120956C2927D647F0212095689
:100EAF00D293E52475F064A4FD7F02120956C29314
:090EBF008083C290C291020E442E
:040EC8008E518F5266
:100ECC00E4F55CF55DE55724FFF559E55634FFF57F
:100EDC0058D3E559955DE55C6480F8E558648098D5
:100EEC004035E55924FFFFE55834FFFEEF25E0FFC0
:100EFC00EE338F82F583121290FDE55925E0FFE564
:100F0C0058338F82F583E5F08DF01212C8E5591530
:100F1C005970BE155880BAE55D25E0FFE55C338F4E
:100F2C0082F583E5518552F01212C8E4F558F55953
:100F3C00C3E5599557E5566480F8E55864809840A8
:100F4C0003021015E55925E0FFE558338F82F58330
:100F5C0012129045F07003021007E5592401F55B5D
:100F6C00E43558F55AC3E55B9557E5566480F8E5CA
:100F7C005A6480984003021007E55B25E0FFE55AB0
:100F8C0033FE8F82F58312129045F060638F828E50
:100F9C0083121290FDACF0E55925E0FFE558338F34
:100FAC0082F583121290FFAEF0D39DEC6480F8EEC4
:050FBC00648098403B39
:100FC1008E5E8F5FE55B25E0FFE55A338F82F58307
:100FD100121290FDE55925E0FFE558338F82F58324
:100FE100E5F08DF01212C8E55B25E0FFE55A338F7D
:0B0FF10082F583E55E855FF01212C8F8
:100FFC00055BE55B7002055A020F710559E55960F6
:09100C0003020F3C0558020F3CE1
:0110150022B8
:041016008E518F5216
:10101A00E4F55CF55DE55724FFF559E55634FFF52F
:10102A0058D3E559955DE55C6480F8E55864809885
:10103A004035E55924FFFFE55834FFFEEF25E0FF70
:10104A00EE338F82F583121290FDE55925E0FFE514
:10105A0058338F82F583E5F08DF01212C8E55915E1
:10106A005970BE155880BAE55D25E0FFE55C338FFF
:10107A0082F583E5518552F01212C8E4F558F55904
:10108A00C3E5599557E5566480F8E5586480984059
:10109A0003021163E55925E0FFE558338F82F58392
:1010AA0012129045F07003021155E5592401F55BBF
:1010BA00E43558F55AC3E55B9557E5566480F8E57B
:1010CA005A6480984003021155E55B25E0FFE55A12
:1010DA0033FE8F82F58312129045F060638F828E01
:1010EA0083121290FDACF0E55925E0FFE558338FE5
:1010FA0082F583121290FFAEF0C39DEC6480F8EE85
:05110A00648098503BD9
:10110F008E5E8F5FE55B25E0FFE55A338F82F583B7
:10111F00121290FDE55925E0FFE558338F82F583D4
:10112F00E5F08DF01212C8E55B25E0FFE55A338F2D
:0B113F0082F583E55E855FF01212C8A8
:10114A00055BE55B7002055A0210BF0559E5596057
:09115A000302108A055802108AF4
:011163002269
:041164008E608F61A9
:10116800E4F567F568C3E5689566E5656480F8E5C4
:10117800676480984003021203E56865617004E5BE
:10118800676560706B85676985686AC3E56A956697
:10119800E5656480F8E569648098505FE56A240134
:1011A800FFE43569FEC3EF9566E5656480F8EE6493
:1011B80080985020EF25E0FFEE338F82F5831212DE
:1011C80090FDE56A25E0FFE569338F82F583E5F058
:1011D8008DF0800FE56A25E0FFE569338F82F5839E
:1011E800E4F5F01212C8056AE56A709F0569809BEC
:0B11F8000568E5687002056702116DD4
:0112030022C8
:10080000EFD3940340037FFF22740F2F2FF8E620CD
:10081000E5F4C2AFE64430F6D2AFAE0CEEC39F5063
:10082000210E74162EF8E6F908E618BE030274FFCE
:10083000FDED69600909E71919F7090980F3161632
:1008400080DAEED39F400405810581EED39F4022DC
:1008500074162EF808E6F9EEB50C02A98118060602
:10086000E6FDED6960091919E70909F71980F31E1A
:1008700080D9EF2416F8E604F8EF2F049013A9931B
:09088000F608EF2F93F67F002229
:10088900EFD3940340037FFF22EF23240FF8E630D0
:10089900E5F4C2AFE6548CF6D2AFE50CB5070A749D
:1008A900162FF8E6F581020A30502E74172FF8E654
:1008B900BF030274FFFD18E6F974162FF8FBE6FC76
:1008C900E96C6008A805E7F61D1980F4A803A605D8
:1008D9001FE50CB507E37F002274172FF8E6FD1812
:1008E90086010F74162FF8A601088604E50CB507D2
:1008F90002AC81ED6C60080D09A805E6F780F4E506
:090909000CB507DE89817F002294
:10091200EFD3940340037FFF22EF23240FF8C2AFEB
:0D092200E6C2E2C6D2AF7F0030E2010F2234
:10092F00EFD3940340037FFF22EF23240FF8C2AFCE
:10093F00E630E50530E002D2E4D2E2C6D2AF7F0066
:07094F0030E2010F020A046F
:100956008FF0E4FFFEE50C23240EF8C2A930F70D54
:100966007F08E6600B2DF660325030800730F106C6
:10097600EDF660277E020830F010C2AFE610E725DC
:100986000E30E20CD2AF7F048014C2AFE610E7153A
:1009960054EC4EF6D2AFD2A9020A307F0808EF44D3
:0F09A60083F4C2AF56C6D2AFD2A954804FFF22FE
:03000B000209BA2D
:1009B500C2AF80FE321209B985D00B75D008AAE006
:1009C500C28CE58A24F7F58AE58C34D8F58CD28C6F
:1009D500EC2417F8E6BC030274FFC39581B4140038
:1009E50040CE7904780E16E608700BC2AFE630E10A
:1009F500034418F6D2AF08D9EDEA8BD030000122B6
:100A0500D50DFCC0E0C0D0C0F0C083C082C000C01E
:100A150001C002C003C004C005C006C007E50C2321
:100A2500240FF87440C2AF46F6D2AFD200E50CFFF2
:100A350023240FF80F0808BF04047F00780FE63061
:100A4500E4F200E50CC39F5020050C7416250CF844
:100A5500E6FDA68108E6AE0CBE030274FFCDF8E8FC
:100A65006D60E008E6C0E080F6E50CD39F4027E521
:100A75000C2417F8E6AE0CBE030274FFFD18E6CD94
:100A8500F8E5816D6006D0E0F61880F5E50C2416D2
:100A9500C8F6150C80D3750D05E50C23240FF87FDA
:100AA50004C2AFE610E61E30E00310E20C7F003012
:050AB500E10730E3043D
:100ABA007F0854F4547CC6D2AF54804207C2002245
:100ACA00F6D2AFD007D006D005D004D003D002D0DA
:100ADA0001D000D082D083D0F0D0D0D0E0C20022A2
:100AEA007816A68174036006FF0876FFDFFB7F0491
:100AFA00E4780EF608F608DFFA780F76309013A934
:100B0A00740193C0E0E493C0E0750D054389017553
:0D0B1A008AF0758CD8D28CD2AFD2A92203FC
:10121000020AEAE493A3F8E493A34003F68001F200
:1012200008DFF48029E493A3F85407240CC8C333DF
:10123000C4540F4420C8834004F456800146F6DFAE
:10124000E4800B010204081020408090134FE47EDC
:10125000019360BCA3FF543F30E509541FFEE493A3
:10126000A360010ECF54C025E060A840B8E493A36A
:10127000FAE493A3F8E493A3C8C582C8CAC583CA95
:10128000F0A3C8C582C8CAC583CADFE9DEE780BE4D
:01138B000061
:10129000BB0110E58229F582E5833AF583E0F5F09C
:1012A000A3E0225009E92582F886F008E622BBFE79
:1012B0000AE92582F8E2F5F008E222E5832AF583BF
:0812C000E993F5F0A3E9932284
:1012C800F8BB0111E58229F582E5833AF583E8F058
:1012D800E5F0A3F0225009E92582C8F608A6F02215
:0D12E800BBFE09E92582C8F2E5F008F222FC
:00000001FF
