:0300000002089261
:10000B000201ABEFD3940640037FFF22740F2F2F17
:10001B00F8E620E5F4C2AFE64430F6D2AFAE0CEE14
:10002B00C39F50210E74682EF8E6F908E618BE0639
:10003B000274FFFDED69600909E71919F7090980D9
:10004B00F3161680DAEED39F400405810581EED3BB
:10005B009F402274682EF808E6F9EEB50C02A981D0
:10006B00180606E6FDED6960091919E70909F71984
:10007B0080F31E80D9EF2468F8E604F8EF2F049084
:10008B000BA293F608EF2F93F67F0022EFD3940683
:10009B0040037FFF22EF23240FF8E630E5F4C2AFD5
:1000AB00E6548CF6D2AFE50CB5070A74682FF8E668
:1000BB00F581020221502E74692FF8E6BF060274F7
:1000CB00FFFD18E6F974682FF8FBE6FCE96C600895
:1000DB00A805E7F61D1980F4A803A6051FE50CB5C6
:1000EB0007E37F002274692FF8E6FD1886010F7471
:1000FB00682FF8A601088604E50CB50702AC81ED64
:10010B006C60080D09A805E6F780F4E50CB507DE71
:10011B0089817F0022EFD3940640037FFF22EF23D8
:10012B00240FF8C2AFE630E50530E002D2E4D2E2AC
:10013B00C6D2AF7F0030E2010F0201F58FF0E4FF72
:10014B00FEE50C23240EF8C2A930F70D7F08E660FC
:10015B000B2DF660325030800730F106EDF660273C
:10016B007E020830F010C2AFE610E7250E30E20C2D
:10017B00D2AF7F048014C2AFE610E71554EC4EF6F5
:10018B00D2AFD2A90202217F0808EF4483F4C2AF99
:10019B0056C6D2AFD2A954804FFF22C2AF80FE32D7
:1001AB001201AA85D00B75D008AAE0C28CE58A246F
:1001BB00F7F58AE58C34D8F58CD28CEC2469F8E60B
:1001CB00BC060274FFC39581B4140040CE79077846
:1001DB000E16E608700BC2AFE630E1034418F6D2F8
:1001EB00AF08D9EDEA8BD030000122D50DFCC0E071
:1001FB00C0D0C0F0C083C082C000C001C002C00329
:10020B00C004C005C006C007E50C23240FF87440DA
:10021B00C2AF46F6D2AFD200E50CFF23240FF80F86
:10022B000808BF07047F00780FE630E4F200E50C06
:10023B00C39F5020050C7468250CF8E6FDA68108B9
:10024B00E6AE0CBE060274FFCDF8E86D60E008E682
:10025B00C0E080F6E50CD39F4027E50C2469F8E657
:10026B00AE0CBE060274FFFD18E6CDF8E5816D609D
:10027B0006D0E0F61880F5E50C2468C8F6150C805E
:10028B00D3750D05E50C23240FF87F04C2AFE610E0
:10029B00E61E30E00310E20C7F0030E10730E30490
:1002AB007F0854F4547CC6D2AF54804207C200225C
:1002BB00F6D2AFD007D006D005D004D003D002D0F1
:1002CB0001D000D082D083D0F0D0D0D0E0C20022B9
:1002DB007868A68174066006FF0876FFDFFB7F0750
:1002EB00E4780EF608F608DFFA780F7630900BA25A
:1002FB00740193C0E0E493C0E0750D05438901756B
:10030B008AF0758CD8D28CD2AFD2A922067F01127B
:10031B000147E522653A7004E521653970357F04A4
:10032B001201207D197F021201477F05120120E582
:10033B002675F019A4FD7F021201477D197F021269
:10034B0001477F06120120E52475F019A4FD7F02F9
:10035B00120147D3E522953AE5396480F8E521642B
:10036B0080984075C3E53A953CE53B6480F8E539E8
:10037B006480985064D290C291E53875F019A4FD51
:10038B007F02120147053AE53A70020539B53CD4B4
:10039B00E539B53BCF7F041201207B007A00793B16
:1003AB007D087C0012091E7D197F021201477F0513
:1003BB00120120E52675F019A4FD7F021201477D7D
:1003CB00197F021201477F06120120E52675F019ED
:1003DB00A4FD7F02120147808BC3E522953AE539D4
:1003EB006480F8E5216480984003020318D3E53A52
:1003FB009528E5276480F8E539648098500302035B
:10040B0018E53A45397003020318C290D291E538CA
:10041B0075F019A4FD7F02120147E53A153A7002F7
:10042B001539E53A65287004E5396527704AE53AD0
:10043B006401453960427F041201207B007A007908
:10044B00277D087C0012091E7D197F021201477F50
:10045B0005120120E52675F019A4FD7F0212014754
:10046B007D197F021201477F06120120E52475F0EA
:10047B0019A4FD7F02120147E53A64014539600377
:10048B000203F87F0412012002031830B0287521F3
:10049B00007522017552007553007554277B007A45
:1004AB0000793BAD3AAC39AF22AE2112099C7F03E8
:1004BB0012012020B0FD30B1287521007522027584
:1004CB0052007553007554277B007A00793BAD3A87
:1004DB00AC39AF22AE2112099C7F0312012020B14F
:1004EB00FD30B2287521007522037552007553003B
:1004FB007554277B007A00793BAD3AAC39AF22AE0D
:10050B002112099C7F0312012020B2FD30B3287504
:10051B0021007522047552007553007554277B001A
:10052B007A00793BAD3AAC39AF22AE2112099C7FF0
:10053B000312012020B3FD30B4287521007522056C
:10054B007552007553007554277B007A00793BADCB
:10055B003AAC39AF22AE2112099C7F031201202045
:10056B00B4FD30B528752100752206755200755300
:10057B00007554277B007A00793BAD3AAC39AF223A
:10058B00AE2112099C7F0312012020B5FD30B62845
:10059B007521007522077552007553007554277B22
:1005AB00007A00793BAD3AAC39AF22AE2112099CEF
:1005BB007F0312012020B6FD20B70302049675219C
:1005CB00007522087552007553007554277B007A0D
:1005DB0000793BAD3AAC39AF22AE2112099C7F03B7
:1005EB0012012020B70302049680F88E558F56E433
:1005FB00F560F561E55B24FFF55DE55A34FFF55CCD
:10060B00D3E55D9561E5606480F8E55C64809840B6
:10061B0035E55D24FFFFE55C34FFFEEF25E0FFEEE3
:10062B00338F82F583120A15FDE55D25E0FFE55C4E
:10063B00338F82F583E5F08DF0120A4DE55D155D84
:10064B0070BE155C80BAE56125E0FFE560338F82F3
:10065B00F583E5558556F0120A4DE4F55CF55DC35F
:10066B00E55D955BE55A6480F8E55C648098400332
:10067B00020743E55D25E0FFE55C338F82F58312CE
:10068B000A1545F07003020735E55D2401F55FE4BB
:10069B00355CF55EC3E55F955BE55A6480F8E55E16
:1006AB006480984003020735E55F25E0FFE55E3384
:1006BB00FE8F82F583120A1545F060638F828E835D
:1006CB00120A15FDACF0E55D25E0FFE55C338F828A
:1006DB00F583120A15FFAEF0D39DEC6480F8EE643F
:1006EB008098403B8E628F63E55F25E0FFE55E33CC
:1006FB008F82F583120A15FDE55D25E0FFE55C337E
:10070B008F82F583E5F08DF0120A4DE55F25E0FF52
:10071B00E55E338F82F583E5628563F0120A4D0542
:10072B005FE55F7002055E02069F055DE55D600398
:10073B0002066A055C02066A228E558F56E4F56046
:10074B00F561E55B24FFF55DE55A34FFF55CD3E518
:10075B005D9561E5606480F8E55C6480984035E503
:10076B005D24FFFFE55C34FFFEEF25E0FFEE338FEA
:10077B0082F583120A15FDE55D25E0FFE55C338FFD
:10078B0082F583E5F08DF0120A4DE55D155D70BEC7
:10079B00155C80BAE56125E0FFE560338F82F58358
:1007AB00E5558556F0120A4DE4F55CF55DC3E55D44
:1007BB00955BE55A6480F8E55C6480984003020819
:1007CB0091E55D25E0FFE55C338F82F583120A1519
:1007DB0045F07003020883E55D2401F55FE4355CA9
:1007EB00F55EC3E55F955BE55A6480F8E55E648072
:1007FB00984003020883E55F25E0FFE55E33FE8F3B
:10080B0082F583120A1545F060638F828E83120A7C
:10081B0015FDACF0E55D25E0FFE55C338F82F583DC
:10082B00120A15FFAEF0C39DEC6480F8EE6480985D
:10083B00503B8E628F63E55F25E0FFE55E338F8271
:10084B00F583120A15FDE55D25E0FFE55C338F822C
:10085B00F583E5F08DF0120A4DE55F25E0FFE55ECF
:10086B00338F82F583E5628563F0120A4D055FE5F0
:10087B005F7002055E0207ED055DE55D6003020733
:10088B00B8055C0207B822787FE4F6D8FD75816E57
:10089B000208D90202DBE493A3F8E493A34003F626
:1008AB008001F208DFF48029E493A3F85407240CA9
:1008BB00C8C333C4540F4420C8834004F45680018A
:1008CB0046F6DFE4800B0102040810204080900BF9
:1008DB000FE47E019360BCA3FF543F30E509541F26
:1008EB00FEE493A360010ECF54C025E060A840B88E
:1008FB00E493A3FAE493A3F8E493A3C8C582C8CA0C
:10090B00C583CAF0A3C8C582C8CAC583CADFE9DEDE
:10091B00E780BE8C648D65E4FFFEC39565E564647A
:10092B0080F874809850698E668F67C3E56795650C
:10093B00E5646480F8E5666480985054E5672401AB
:10094B00FFE43566FEC3EF9565E5646480F8EE64FD
:10095B0080985020EF25E0FFEE338F82F583120A4B
:10096B0015FDE56725E0FFE566338F82F583E5F03E
:10097B008DF0800FE56725E0FFE566338F82F58309
:10098B00E4F5F0120A4D0567E567709F0566809BDD
:10099B00228E4B8F4C8C4D8D4E8B4F8A508951D361
:1009AB00E54C954EE54D6480F8E54B648098401F0F
:1009BB00755A00755B08120AD4EF4E7012AB4FAA32
:1009CB0050A951F55A755B08AF4CAE4B1205F6C3E7
:1009DB00E54C954EE54D6480F8E54B6480985029C5
:1009EB00AB52AA53A954755A00755B08AF4CAE4B6A
:1009FB00120AD4EF4E7012AB52AA53A954F55A7582
:100A0B005B08AF4CAE4B12074422BB0110E58229A9
:100A1B00F582E5833AF583E0F5F0A3E0225009E98E
:100A2B002582F886F008E622BBFE0AE92582F8E269
:100A3B00F5F008E222E5832AF583E993F5F0A3E9C3
:100A4B009322F8BB0111E58229F582E5833AF58300
:100A5B00E8F0E5F0A3F0225009E92582C8F608A6D4
:100A6B00F022BBFE09E92582C8F2E5F008F222E587
:100A7B003970FCE53A14B4080050F4900A9475F000
:100A8B0003A4C58325F0C58373020AAC020AB10225
:100A9B000AB6020ABB020AC0020AC5020ACA020A45
:100AAB00CF75A00680C975A05B80C475A04F80BFB1
:100ABB0075A06680BA75A06D80B575A07D80B07588
:100ACB00A00780AB75A07F80A68E558F56E4FDFCEA
:100ADB00C3ED955BE55A6480F8EC6480985021ED8A
:100AEB0025E0FFEC338F82F583120A15B5560AE524
:100AFB00F0B555057E007F01220DBD00010C80D0A5
:100B0B00E4FEFF2202390001023700020225000138
:100B1B0002230001103B0000000000000000000059
:100B2B000000000000001027000000000000000083
:100B3B00000000000000000000E4F580F590F5A037
:100B4B00F5B0FF12000E7F0112000E7F0212000E95
:100B5B007F0312000E7F0412000E7F0512000E7F22
:100B6B000612000EE4FF0200977F01120147D2929A
:100B7B00E52675F019A4FD7F02120147C29280E9A8
:100B8B007F01120147D293E52475F019A4FD7F0272
:100B9B00120147C29380E90B4404960A7A03180B9F
:100BAB00B00B740B8B7F01120147C290C29180F581
:00000001FF
